:08000000803102288731FD2F39
:10055800C8308231F62282310800C8308231F62252
:1005680082310800240016081F39031DBC2ABD2A41
:10057800B62A080022000D168231B12282312200EB
:100588000D128231B12282310800F50022008D124D
:100598008231AC228231750885314F2582310800BD
:1005A800F50022008D168231AC2282317508853122
:1005B8004F25823108008231B62282312400161478
:1005C800000000000000000000000800F000823178
:1005D800B62282317008240091001418F42AF52AF2
:1005E800F12A0800F000F101FC2A00000130F107AF
:1005F80070087102031C012B022BF92A0800F7006E
:100608008231DF22833177358231EA2283317608DD
:100618008231EA2283318331132383310800823106
:10062800B62283312400161507308231F622833131
:100638003C30F2000030F30083317223833108002C
:10064800F200F101721C292B2A2B2C2B7008F107C0
:100658000310F00D0310F20C7208031D342B352B18
:10066800262B71080800F0008231B622833124005D
:100678009615141C402B412B3D2B1108F100700CD2
:10068800031C16120318161671080800F6008231AA
:10069800DF2283310314760D8231EA228331003060
:1006A800833137238331F70083311323833177086C
:1006B8000800F31B602B612B622B712B7009F00073
:1006C8007109F1007209F2007309F300F00A0319C5
:1006D800F10A0319F20A0319F30A0800F401F501F3
:1006E8007D2B0F308231F62283310130F407003040
:1006F800F53D73087502031D832B72087402031CF1
:10070800862B872B752B0800952B76088400770895
:10071800850000088231D42283310130F607003089
:10072800F73D76088400770885001200031D9D2B8D
:100738009E2B892B08007008F500A92B75088600E8
:100748008701710881000130F5070130F30200309C
:10075800F43B730A031DB42B740A031DB42BB52B89
:10076800A22B08000030F9000030F8000030F70034
:100778006430F6008331EB23833156308231F62220
:1007880083318431ED248331863162268331C82B4D
:1007980080310228F700E22B7608803E8231C92298
:1007A8008331EA2B7608C03E8231C9228331EA2B95
:1007B8007608803E8231C9228331EA2B7708003AD5
:1007C8000319D02B013A0319D62BDC2B0800003073
:1007D800FD000030FC000030FB000030FA00012C66
:1007E8002930F2000030F300833172238331013065
:1007F800FA070030FB3DFC3DFD3D79087D02031DF5
:100808000F2C78087C02031D0F2C77087B02031D30
:100818000F2C76087A02031C122C132CF42B0800D8
:100828000030F9000030F8000030F7001430F6000E
:100838008331EB23843133308231C9228431323021
:100848008231C922843128308231C9228431023070
:100858008231C92284310C308231C9228431063078
:100868008231C922843180308231C92284310130F9
:100878008231C92284314130F2000030F3008331E3
:10088800722384310800240094171508F0390838B9
:1008980095009711083020002502B0300319240272
:1008A800031C572C582C5D2CAF30A4000830A50031
:1008B8006A2C043025025930031924020318652CC8
:1008C800662C6A2C5930A4000430A5002408F000D6
:1008D8002508F100F201F3012308F7002208F600C9
:1008E8002108F5002008F40084319524843170082B
:1008F8002000A6007108A7007208A8007308A900C4
:100908000230A936A80CA70CA60C890B852C260842
:10091800FF3E24009200951602308231F62284317F
:1009280008000030FB000030FA000030F900003009
:10093800F80073087204710470040319A42CA52C20
:10094800E42C0130FC00B12C0130F035F10DF20D32
:10095800F30D890BA92C0130FC07F31FB42CB52C1F
:10096800A82C0130F835F90DFA0DFB0D890BB62CC2
:1009780073087702031DCA2C72087602031DCA2C5D
:1009880071087502031DCA2C70087402031CCD2C53
:10099800CE2CD72C7008F4027108F53B7208F63B90
:1009A8007308F73B78140130F336F20CF10CF00CB5
:1009B800890BD82C0130FC02031DE32CE42CB52C48
:1009C8007B08F3007A08F2007908F1007808F00053
:1009D800080021000D138D1322008D130D13210023
:1009E8008D120D128D110D118D108E1223008D1286
:1009F8000D128D110D118D1022008D120D128D11F9
:100A08000D118D108E1221008C140C158C150C16DE
:100A180023008C100C118C110C1221008E15220051
:100A28001D1221000E1622009D11843114248431D8
:100A3800F60100308331CE2384310030F60088304F
:100A4800F700833188238431F60101308331CE23C6
:100A5800843100302000A3000030A2000030A10043
:100A68000030A0000230A400A501A601A60A873123
:100A78002927843101302000A300E830A200483043
:100A8800A1000030A0005830A4000230A500843135
:100A9800472484310800F4007408F2000730F23665
:100AA800890B532D72080139F300F30EF30D220060
:100AB8000E087306DF3973068E007408F2000630DC
:100AC800F236890B642D72080139F300F30D0D0815
:100AD8007306FD3973068D007408F2000530F2368E
:100AE800890B732D72080139F300F30DF30D0D080E
:100AF8007306FB3973068D007408F2000430F23671
:100B0800890B832D72080139F300F30DF30DF30DF2
:100B18000D087306F73973068D008231BE228531C0
:100B28007408F2000330F236890B972D72080139E8
:100B3800F300F30EF30D22000E087306DF39730677
:100B48008E007408F2000230F236890BA82D720864
:100B58000139F300F30D0D087306FD3973068D0096
:100B68007408F2000130F236890BB72D720801398A
:100B7800F300F30DF30D0D087306FB3973068D00B2
:100B880074080139F200F20DF20DF20D0D0872062B
:100B9800F73972068D008231BE2285311E308231CE
:100BA800F62285310800F901F31FDB2DDC2DE92D34
:100BB800F009F109F209F309F00A0319F10A031916
:100BC800F20A0319F30A0130F900F71FEC2DED2D95
:100BD800FA2DF409F509F609F709F40A0319F50AD3
:100BE8000319F60A0319F70A0130F9060030FD0067
:100BF8000030FC000030FB000030FA00730872047B
:100C0800710470040319092E0A2E492E0130F800C8
:100C1800162E0130F035F10DF20DF30D890B0E2E65
:100C28000130F807F31F192E1A2E0D2E0130FA3550
:100C3800FB0DFC0DFD0D890B1B2E73087702031DA0
:100C48002F2E72087602031D2F2E71087502031DC0
:100C58002F2E70087402031C322E332E3C2E70087F
:100C6800F4027108F53B7208F63B7308F73B7A14F7
:100C78000130F336F20CF10CF00C890B3D2E0130EB
:100C8800F802031D482E492E1A2E790803194D2EF5
:100C98004E2E592EFA09FB09FC09FD09FA0A031917
:100CA800FB0A0319FC0A0319FD0A7D08F3007C08F6
:100CB800F2007B08F1007A08F000080022008D1786
:100CC800AA30F60010308331032386310F30F60046
:100CD80020308331032386310030F9000030F800DA
:100CE8000030F700C830F6008331EB23863122004C
:100CF8008D13F60101308331CE23863110308331D4
:100D08004A2386312000C900CA01CB01CC014C0816
:100D1800A3004B08A2004A08A1004908A00002301D
:100D2800A400A501A601A60A873129278631043027
:100D3800F60001308331CE238631203083314A23B7
:100D480086312000C900CA01CB01CC014C08A300A0
:100D58004B08A2004A08A1004908A0000230A400DC
:100D6800A501A601A60A8731292786310030F90096
:100D78000030F8000030F700C830F6008331EB236C
:100D8800863122008D175530F60010308331032349
:100D98008631F030F600203083310323863100306D
:100DA800F9000030F8000030F700C830F600833151
:100DB800EB23863122008D13F60101308331CE23D7
:100DC8008631103083314A2386312000C900CA0198
:100DD800CB01CC014C08A3004B08A2004A08A10093
:100DE8004908A0000230A400A501A601A60A87317F
:100DF800292786310430F60001308331CE2386312D
:100E0800203083314A2386312000C900CA01CB0132
:100E1800CC014C08A3004B08A2004A08A1004908CD
:100E2800A0000230A400A501A601A60A873129273F
:100E380086310030F9000030F8000030F700C83083
:100E4800F6008331EB23863108002000C801C70172
:100E58002B30F0000030F100F2000B30F3000030CE
:100E6800F40083319F2387313630F0000030F100E1
:100E7800F2000B30F3000030F40083319F238731F8
:100E88002000A31F482F492F682F250803194D2F2D
:100E98004E2F522F2D308231D42287312000230843
:100EA800F3002208F2002108F1002008F000833145
:100EB8005D23873173082000A3007208A20071081F
:100EC800A1007008A000712F250803196C2F6D2F41
:100ED800712F20308231D422873120002308C400AA
:100EE8002208C3002108C2002008C1000030F30016
:100EF8000030F2000030F1000A30F0002308F7005B
:100F08002208F6002108F5002008F4008531D725CD
:100F1800873173082000A3007208A2007108A1009D
:100F28007008A000F630F0002008833124238731B0
:100F380020004107C50048082B3E86008701450868
:100F4800303E81000130C807230822042104200410
:100F5800031DAF2FB02F712F4808C700C801C62F37
:100F6800200026080319B92FBA2FBF2F303082313D
:100F7800D4228731C32F20308231D42287310130E7
:100F88002000C8072408A700A8012808AA004708C5
:100F98002702A900031CAA032A08803A803C031DE3
:100FA800D72F29084802031CDA2FDB2FB42F200083
:100FB8004708C800C6014808031DE32FE42FE52FA2
:100FC800F52F4608363E860087014808FF3E2B3E2F
:100FD80084008501000881000130C8020130C6077D
:100FE800DF2F3630F6000030F70083318823873151
:100FF800080020008331B62B49343234433420347E
:0E1008004D3461347334743465347234003402
:020000040001F9
:04000E00E201FF3FCD
:00000001FF
